20:30:02.729841 IP 97.109.27.104.50034 > 165.227.37.88.ssh: Flags [.], ack 1393572, win 361, length 0
        0x0000:  5eee 5cdb 9ed9 fe00 0000 0101 0800 4558  ^.\...........EX
        0x0010:  0028 9b67 4000 7906 1e00 616d 1b68 a5e3  .(.g@.y...am.h..
        0x0020:  2558 c372 0016 2320 d700 110f 5c31 5010  %X.r..#.....\1P.
        0x0030:  0169 3b71 0000 0000 0000 0000            .i;q........
20:30:02.734948 IP 97.109.27.104.50034 > 165.227.37.88.ssh: Flags [.], ack 1414392, win 280, length 0
        0x0000:  5eee 5cdb 9ed9 fe00 0000 0101 0800 4558  ^.\...........EX
        0x0010:  0028 9b68 4000 7906 1dff 616d 1b68 a5e3  .(.h@.y...am.h..
        0x0020:  2558 c372 0016 2320 d700 110f ad85 5010  %X.r..#.......P.
        0x0030:  0118 ea6d 0000 0000 0000 0000            ...m........
20:30:02.739793 IP 97.109.27.104.50034 > 165.227.37.88.ssh: Flags [.], ack 1417168, win 269, length 0
        0x0000:  5eee 5cdb 9ed9 fe00 0000 0101 0800 4558  ^.\...........EX
        0x0010:  0028 9b69 4000 7906 1dfe 616d 1b68 a5e3  .(.i@.y...am.h..
        0x0020: ^C
        0x0010:  0028 9bad 4000 7906 1dba 616d 1b68 a5e3  .(..@.y...am.h..
        0x0020:  2558 c372 0016 2320 d820 1118 87dd 5010  %X.r..#.......P.
        0x0030:  0049 0fbc 0000 0000 0000 0000            .I..........

327 packets captured
843 packets received by filter
